{"contracts/Paypal.sol":{"paypal":{"abi":[{"anonymous":false,"inputs":[{"indexed":true,"internalType":"address","name":"recipeintOf","type":"address"},{"indexed":false,"internalType":"address","name":"recipeint","type":"address"},{"indexed":false,"internalType":"string","name":"recipeintName","type":"string"}],"name":"recipeints","type":"event"},{"anonymous":false,"inputs":[{"indexed":true,"internalType":"address","name":"from","type":"address"},{"indexed":false,"internalType":"address","name":"to","type":"address"},{"indexed":false,"internalType":"uint256","name":"amount","type":"uint256"},{"indexed":false,"internalType":"string","name":"symbol","type":"string"}],"name":"transaction","type":"event"},{"inputs":[{"internalType":"address payable","name":"_to","type":"address"},{"internalType":"string","name":"symbol","type":"string"}],"name":"_transfer","outputs":[],"stateMutability":"payable","type":"function"},{"inputs":[{"internalType":"address","name":"recipient","type":"address"},{"internalType":"string","name":"name","type":"string"}],"name":"addRecipents","outputs":[],"stateMutability":"nonpayable","type":"function"},{"inputs":[{"internalType":"address","name":"from","type":"address"},{"internalType":"address","name":"to","type":"address"},{"internalType":"uint256","name":"amount","type":"uint256"},{"internalType":"string","name":"symbol","type":"string"}],"name":"saveTx","outputs":[],"stateMutability":"nonpayable","type":"function"}],"evm":{"bytecode":{"linkReferences":{},"object":"608060405234801561001057600080fd5b506103dd806100206000396000f3fe6080604052600436106100345760003560e01c80631b7b034514610039578063a628aeae1461004e578063e0e6a2241461006e575b600080fd5b61004c61004736600461021a565b61008e565b005b34801561005a57600080fd5b5061004c610069366004610268565b61010d565b34801561007a57600080fd5b5061004c61008936600461021a565b610158565b6040516001600160a01b038316903480156108fc02916000818181858888f193505050501580156100c3573d6000803e3d6000fd5b50336001600160a01b03167f1bb052f596291b326ef4c48a1115779bb3e66193ccacc2eae33eed59bcf5008e8334846040516101019392919061031d565b60405180910390a25050565b836001600160a01b03167f1bb052f596291b326ef4c48a1115779bb3e66193ccacc2eae33eed59bcf5008e84848460405161014a9392919061031d565b60405180910390a250505050565b336001600160a01b03167f1c4014116cd39216627a9de9ba62e8f55ea87993d2ea6e01b2d90db98b7a054a838360405161010192919061034d565b600082601f8301126101a3578081fd5b813567ffffffffffffffff808211156101be576101be610379565b604051601f8301601f19908116603f011681019082821181831017156101e6576101e6610379565b816040528381528660208588010111156101fe578485fd5b8360208701602083013792830160200193909352509392505050565b6000806040838503121561022c578182fd5b82356102378161038f565b9150602083013567ffffffffffffffff811115610252578182fd5b61025e85828601610193565b9150509250929050565b6000806000806080858703121561027d578182fd5b84356102888161038f565b935060208501356102988161038f565b925060408501359150606085013567ffffffffffffffff8111156102ba578182fd5b6102c687828801610193565b91505092959194509250565b60008151808452815b818110156102f7576020818501810151868301820152016102db565b818111156103085782602083870101525b50601f01601f19169290920160200192915050565b60018060a01b038416815282602082015260606040820152600061034460608301846102d2565b95945050505050565b6001600160a01b0383168152604060208201819052600090610371908301846102d2565b949350505050565b634e487b7160e01b600052604160045260246000fd5b6001600160a01b03811681146103a457600080fd5b5056fea2646970667358221220e5d6e545b2db265dbf4ad5e1417a4665ecfe8b85d11deb11ff320042d2d7c62e64736f6c63430008040033","opcodes":"PUSH1 0x80 PUSH1 0x40 MSTORE CALLVALUE DUP1 ISZERO PUSH2 0x10 JUMPI PUSH1 0x0 DUP1 REVERT JUMPDEST POP PUSH2 0x3DD DUP1 PUSH2 0x20 PUSH1 0x0 CODECOPY PUSH1 0x0 RETURN INVALID PUSH1 0x80 PUSH1 0x40 MSTORE PUSH1 0x4 CALLDATASIZE LT PUSH2 0x34 JUMPI PUSH1 0x0 CALLDATALOAD PUSH1 0xE0 SHR DUP1 PUSH4 0x1B7B0345 EQ PUSH2 0x39 JUMPI DUP1 PUSH4 0xA628AEAE EQ PUSH2 0x4E JUMPI DUP1 PUSH4 0xE0E6A224 EQ PUSH2 0x6E JUMPI JUMPDEST PUSH1 0x0 DUP1 REVERT JUMPDEST PUSH2 0x4C PUSH2 0x47 CALLDATASIZE PUSH1 0x4 PUSH2 0x21A JUMP JUMPDEST PUSH2 0x8E JUMP JUMPDEST STOP JUMPDEST CALLVALUE DUP1 ISZERO PUSH2 0x5A JUMPI PUSH1 0x0 DUP1 REVERT JUMPDEST POP PUSH2 0x4C PUSH2 0x69 CALLDATASIZE PUSH1 0x4 PUSH2 0x268 JUMP JUMPDEST PUSH2 0x10D JUMP JUMPDEST CALLVALUE DUP1 ISZERO PUSH2 0x7A JUMPI PUSH1 0x0 DUP1 REVERT JUMPDEST POP PUSH2 0x4C PUSH2 0x89 CALLDATASIZE PUSH1 0x4 PUSH2 0x21A JUMP JUMPDEST PUSH2 0x158 JUMP JUMPDEST PUSH1 0x40 MLOAD PUSH1 0x1 PUSH1 0x1 PUSH1 0xA0 SHL SUB DUP4 AND SWAP1 CALLVALUE DUP1 ISZERO PUSH2 0x8FC MUL SWAP2 PUSH1 0x0 DUP2 DUP2 DUP2 DUP6 DUP9 DUP9 CALL SWAP4 POP POP POP POP ISZERO DUP1 ISZERO PUSH2 0xC3 JUMPI RETURNDATASIZE PUSH1 0x0 DUP1 RETURNDATACOPY RETURNDATASIZE PUSH1 0x0 REVERT JUMPDEST POP CALLER PUSH1 0x1 PUSH1 0x1 PUSH1 0xA0 SHL SUB AND PUSH32 0x1BB052F596291B326EF4C48A1115779BB3E66193CCACC2EAE33EED59BCF5008E DUP4 CALLVALUE DUP5 PUSH1 0x40 MLOAD PUSH2 0x101 SWAP4 SWAP3 SWAP2 SWAP1 PUSH2 0x31D JUMP JUMPDEST PUSH1 0x40 MLOAD DUP1 SWAP2 SUB SWAP1 LOG2 POP POP JUMP JUMPDEST DUP4 PUSH1 0x1 PUSH1 0x1 PUSH1 0xA0 SHL SUB AND PUSH32 0x1BB052F596291B326EF4C48A1115779BB3E66193CCACC2EAE33EED59BCF5008E DUP5 DUP5 DUP5 PUSH1 0x40 MLOAD PUSH2 0x14A SWAP4 SWAP3 SWAP2 SWAP1 PUSH2 0x31D JUMP JUMPDEST PUSH1 0x40 MLOAD DUP1 SWAP2 SUB SWAP1 LOG2 POP POP POP POP JUMP JUMPDEST CALLER PUSH1 0x1 PUSH1 0x1 PUSH1 0xA0 SHL SUB AND PUSH32 0x1C4014116CD39216627A9DE9BA62E8F55EA87993D2EA6E01B2D90DB98B7A054A DUP4 DUP4 PUSH1 0x40 MLOAD PUSH2 0x101 SWAP3 SWAP2 SWAP1 PUSH2 0x34D JUMP JUMPDEST PUSH1 0x0 DUP3 PUSH1 0x1F DUP4 ADD SLT PUSH2 0x1A3 JUMPI DUP1 DUP2 REVERT JUMPDEST DUP2 CALLDATALOAD PUSH8 0xFFFFFFFFFFFFFFFF DUP1 DUP3 GT ISZERO PUSH2 0x1BE JUMPI PUSH2 0x1BE PUSH2 0x379 JUMP JUMPDEST PUSH1 0x40 MLOAD PUSH1 0x1F DUP4 ADD PUSH1 0x1F NOT SWAP1 DUP2 AND PUSH1 0x3F ADD AND DUP2 ADD SWAP1 DUP3 DUP3 GT DUP2 DUP4 LT OR ISZERO PUSH2 0x1E6 JUMPI PUSH2 0x1E6 PUSH2 0x379 JUMP JUMPDEST DUP2 PUSH1 0x40 MSTORE DUP4 DUP2 MSTORE DUP7 PUSH1 0x20 DUP6 DUP9 ADD ADD GT ISZERO PUSH2 0x1FE JUMPI DUP5 DUP6 REVERT JUMPDEST DUP4 PUSH1 0x20 DUP8 ADD PUSH1 0x20 DUP4 ADD CALLDATACOPY SWAP3 DUP4 ADD PUSH1 0x20 ADD SWAP4 SWAP1 SWAP4 MSTORE POP SWAP4 SWAP3 POP POP POP JUMP JUMPDEST PUSH1 0x0 DUP1 PUSH1 0x40 DUP4 DUP6 SUB SLT ISZERO PUSH2 0x22C JUMPI DUP2 DUP3 REVERT JUMPDEST DUP3 CALLDATALOAD PUSH2 0x237 DUP2 PUSH2 0x38F JUMP JUMPDEST SWAP2 POP PUSH1 0x20 DUP4 ADD CALLDATALOAD PUSH8 0xFFFFFFFFFFFFFFFF DUP2 GT ISZERO PUSH2 0x252 JUMPI DUP2 DUP3 REVERT JUMPDEST PUSH2 0x25E DUP6 DUP3 DUP7 ADD PUSH2 0x193 JUMP JUMPDEST SWAP2 POP POP SWAP3 POP SWAP3 SWAP1 POP JUMP JUMPDEST PUSH1 0x0 DUP1 PUSH1 0x0 DUP1 PUSH1 0x80 DUP6 DUP8 SUB SLT ISZERO PUSH2 0x27D JUMPI DUP2 DUP3 REVERT JUMPDEST DUP5 CALLDATALOAD PUSH2 0x288 DUP2 PUSH2 0x38F JUMP JUMPDEST SWAP4 POP PUSH1 0x20 DUP6 ADD CALLDATALOAD PUSH2 0x298 DUP2 PUSH2 0x38F JUMP JUMPDEST SWAP3 POP PUSH1 0x40 DUP6 ADD CALLDATALOAD SWAP2 POP PUSH1 0x60 DUP6 ADD CALLDATALOAD PUSH8 0xFFFFFFFFFFFFFFFF DUP2 GT ISZERO PUSH2 0x2BA JUMPI DUP2 DUP3 REVERT JUMPDEST PUSH2 0x2C6 DUP8 DUP3 DUP9 ADD PUSH2 0x193 JUMP JUMPDEST SWAP2 POP POP SWAP3 SWAP6 SWAP2 SWAP5 POP SWAP3 POP JUMP JUMPDEST PUSH1 0x0 DUP2 MLOAD DUP1 DUP5 MSTORE DUP2 JUMPDEST DUP2 DUP2 LT ISZERO PUSH2 0x2F7 JUMPI PUSH1 0x20 DUP2 DUP6 ADD DUP2 ADD MLOAD DUP7 DUP4 ADD DUP3 ADD MSTORE ADD PUSH2 0x2DB JUMP JUMPDEST DUP2 DUP2 GT ISZERO PUSH2 0x308 JUMPI DUP3 PUSH1 0x20 DUP4 DUP8 ADD ADD MSTORE JUMPDEST POP PUSH1 0x1F ADD PUSH1 0x1F NOT AND SWAP3 SWAP1 SWAP3 ADD PUSH1 0x20 ADD SWAP3 SWAP2 POP POP JUMP JUMPDEST PUSH1 0x1 DUP1 PUSH1 0xA0 SHL SUB DUP5 AND DUP2 MSTORE DUP3 PUSH1 0x20 DUP3 ADD MSTORE PUSH1 0x60 PUSH1 0x40 DUP3 ADD MSTORE PUSH1 0x0 PUSH2 0x344 PUSH1 0x60 DUP4 ADD DUP5 PUSH2 0x2D2 JUMP JUMPDEST SWAP6 SWAP5 POP POP POP POP POP JUMP JUMPDEST PUSH1 0x1 PUSH1 0x1 PUSH1 0xA0 SHL SUB DUP4 AND DUP2 MSTORE PUSH1 0x40 PUSH1 0x20 DUP3 ADD DUP2 SWAP1 MSTORE PUSH1 0x0 SWAP1 PUSH2 0x371 SWAP1 DUP4 ADD DUP5 PUSH2 0x2D2 JUMP JUMPDEST SWAP5 SWAP4 POP POP POP POP JUMP JUMPDEST PUSH4 0x4E487B71 PUSH1 0xE0 SHL PUSH1 0x0 MSTORE PUSH1 0x41 PUSH1 0x4 MSTORE PUSH1 0x24 PUSH1 0x0 REVERT JUMPDEST PUSH1 0x1 PUSH1 0x1 PUSH1 0xA0 SHL SUB DUP2 AND DUP2 EQ PUSH2 0x3A4 JUMPI PUSH1 0x0 DUP1 REVERT JUMPDEST POP JUMP INVALID LOG2 PUSH5 0x6970667358 0x22 SLT KECCAK256 0xE5 0xD6 0xE5 GASLIMIT 0xB2 0xDB 0x26 0x5D 0xBF 0x4A 0xD5 0xE1 COINBASE PUSH27 0x4665ECFE8B85D11DEB11FF320042D2D7C62E64736F6C6343000804 STOP CALLER "},"methodIdentifiers":{"_transfer(address,string)":"1b7b0345","addRecipents(address,string)":"e0e6a224","saveTx(address,address,uint256,string)":"a628aeae"}}}}}