{
  "_format": "hh-sol-artifact-1",
  "contractName": "paypal",
  "sourceName": "contracts/Paypal.sol",
  "abi": [
    {
      "anonymous": false,
      "inputs": [
        {
          "indexed": true,
          "internalType": "address",
          "name": "recipeintOf",
          "type": "address"
        },
        {
          "indexed": false,
          "internalType": "address",
          "name": "recipeint",
          "type": "address"
        },
        {
          "indexed": false,
          "internalType": "string",
          "name": "recipeintName",
          "type": "string"
        }
      ],
      "name": "recipeints",
      "type": "event"
    },
    {
      "anonymous": false,
      "inputs": [
        {
          "indexed": true,
          "internalType": "address",
          "name": "from",
          "type": "address"
        },
        {
          "indexed": false,
          "internalType": "address",
          "name": "to",
          "type": "address"
        },
        {
          "indexed": false,
          "internalType": "uint256",
          "name": "amount",
          "type": "uint256"
        },
        {
          "indexed": false,
          "internalType": "string",
          "name": "symbol",
          "type": "string"
        }
      ],
      "name": "transaction",
      "type": "event"
    },
    {
      "inputs": [
        {
          "internalType": "address payable",
          "name": "_to",
          "type": "address"
        },
        {
          "internalType": "string",
          "name": "symbol",
          "type": "string"
        }
      ],
      "name": "_transfer",
      "outputs": [],
      "stateMutability": "payable",
      "type": "function"
    },
    {
      "inputs": [
        {
          "internalType": "address",
          "name": "recipient",
          "type": "address"
        },
        {
          "internalType": "string",
          "name": "name",
          "type": "string"
        }
      ],
      "name": "addRecipents",
      "outputs": [],
      "stateMutability": "nonpayable",
      "type": "function"
    },
    {
      "inputs": [
        {
          "internalType": "address",
          "name": "from",
          "type": "address"
        },
        {
          "internalType": "address",
          "name": "to",
          "type": "address"
        },
        {
          "internalType": "uint256",
          "name": "amount",
          "type": "uint256"
        },
        {
          "internalType": "string",
          "name": "symbol",
          "type": "string"
        }
      ],
      "name": "saveTx",
      "outputs": [],
      "stateMutability": "nonpayable",
      "type": "function"
    }
  ],
  "bytecode": "0x608060405234801561001057600080fd5b506103dd806100206000396000f3fe6080604052600436106100345760003560e01c80631b7b034514610039578063a628aeae1461004e578063e0e6a2241461006e575b600080fd5b61004c61004736600461021a565b61008e565b005b34801561005a57600080fd5b5061004c610069366004610268565b61010d565b34801561007a57600080fd5b5061004c61008936600461021a565b610158565b6040516001600160a01b038316903480156108fc02916000818181858888f193505050501580156100c3573d6000803e3d6000fd5b50336001600160a01b03167f1bb052f596291b326ef4c48a1115779bb3e66193ccacc2eae33eed59bcf5008e8334846040516101019392919061031d565b60405180910390a25050565b836001600160a01b03167f1bb052f596291b326ef4c48a1115779bb3e66193ccacc2eae33eed59bcf5008e84848460405161014a9392919061031d565b60405180910390a250505050565b336001600160a01b03167f1c4014116cd39216627a9de9ba62e8f55ea87993d2ea6e01b2d90db98b7a054a838360405161010192919061034d565b600082601f8301126101a3578081fd5b813567ffffffffffffffff808211156101be576101be610379565b604051601f8301601f19908116603f011681019082821181831017156101e6576101e6610379565b816040528381528660208588010111156101fe578485fd5b8360208701602083013792830160200193909352509392505050565b6000806040838503121561022c578182fd5b82356102378161038f565b9150602083013567ffffffffffffffff811115610252578182fd5b61025e85828601610193565b9150509250929050565b6000806000806080858703121561027d578182fd5b84356102888161038f565b935060208501356102988161038f565b925060408501359150606085013567ffffffffffffffff8111156102ba578182fd5b6102c687828801610193565b91505092959194509250565b60008151808452815b818110156102f7576020818501810151868301820152016102db565b818111156103085782602083870101525b50601f01601f19169290920160200192915050565b60018060a01b038416815282602082015260606040820152600061034460608301846102d2565b95945050505050565b6001600160a01b0383168152604060208201819052600090610371908301846102d2565b949350505050565b634e487b7160e01b600052604160045260246000fd5b6001600160a01b03811681146103a457600080fd5b5056fea2646970667358221220e5d6e545b2db265dbf4ad5e1417a4665ecfe8b85d11deb11ff320042d2d7c62e64736f6c63430008040033",
  "linkReferences": {},
  "deployedLinkReferences": {}
}